:100000000C942A000C9447000C9447000C94470071
:100010000C9447000C9447000C9447000C94470044
:100020000C9447000C9447000C9447000C944A0031
:100030000C9447000C9447000C9447000C94470024
:100040000C9447000C9447000C9447000C94470014
:100050000C94470011241FBECFE5D8E0DEBFCDBF12
:1000600010E0A0E6B0E0E6ECF0E002C005900D92F2
:10007000A036B107D9F720E0A0E6B0E001C01D929C
:10008000A236B207E1F70E9449000C9461000C947B
:100090000000FFCF1F920F920FB60F9211248F9383
:1000A0009F93809160009091610001969093610010
:1000B000809360009F918F910F900FBE0F901F90C3
:0600C0001895F894FFCF33
:00000001FF
